S01D0000726F626F745F70726F6A6563745F616E64726561732E737265634E
S113000012C03DC24DC22AC018C228C027C026C093
S113001025C057C223C022C221C020C01FC01EC099
S11300201DC01CC01BC011241FBECFE5D4E0DEBF21
S1130030CDBF10E0A0E6B0E0E6EAF5E002C005902E
S11300400D92A236B107D9F720E0A2E6B0E001C0D4
S11300501D92A837B207E1F718D1A3C2D1CF10BCC3
S113006083E389B986E880BD88E98AB9089596B1A1
S1130070966896B9813029F4611109C083E687B97D
S113008006C0811104C0613011F482E687B9369A42
S11300903699FECF08951BBC8ABD19BC68BD08956E
S11300A08FB5816A8FBD8EB582608EBD17BC16BCBC
S11300B01BBC1ABC19BC18BC089587B3866087BBE7
S11300C0A49A84B3836084BB81B3806C81BB81B305
S11300D0806381BB089589B7816089BF83B78360DA
S11300E083BF089585B5826085BD14BC89B78064DB
S11300F089BF789410926D0008958BB780648BBF8C
S113010085B7826085BF789408958BB780688BBF6C
S113011085B7886085BF789408955D9BFECF8CB9C0
S11301205E9BFECF5E9A0895909171008091740059
S1130130891740F49798969868EC8FEFACDF81E0CC
S1130140809360009091740080917100891738F455
S1130150969897986FEF88EC9EDF109260009091CC
S1130160740080917100981308C0969897986FEF67
S11301708FEF91DF82E080936000089560E080E07B
S11301808ADF82B3806C82BB08956FEF8FEF83DFC9
S113019096989798089560E08FEF7DDF969A9798E8
S11301A00895959A9498969897988091750023E26B
S11301B08202C001112490936900809368009C011D
S11301C0992314F42F5F3F4F35952795309367009B
S11301D02093660042ED50E0509363004093620028
S11301E050936500409364001816190604F5A9019C
S11301F04E525F4F4F3F510509F02CF4509363006A
S11302004093620006C04FEF50E050936300409368
S1130210620042ED50E0421B530B2AF050936500FC
S11302204093640004C01092650010926400992306
S113023034F58091640090916500821B930B8F3F8D
S1130240910509F02CF4909365008093640006C036
S11302508FEF90E09093650080936400809162003A
S113026090916300280F391F33232CF030936300DF
S11302702093620004C010926300109262006091A7
S113028062008091640007CF089578942BDF35DFF6
S11302903CDF13DF05DF1FDF60E081E0E8DEDFDE47
S11302A0D0E1C0E280916A0080FF0DC08E7F809310
S11302B06A0080916D008F3F19F410926D0003C0A5
S11302C08F5F80936D0080916A0081FF06C08D7FEF
S11302D080936A008CB180936B0080916A0082FFE6
S11302E00CC08B7F80936A0080916D008D57809342
S11302F0740013DF8091710010DF80916A0083FF26
S113030007C0877F80936A0080916D00809371009D
S113031080916A0084FF03C08F7E80936A0080917D
S11303206D00811108C08BB780688BBF8BB78F7B42
S11303308BBFA99AA89880916D008D3741F48BB733
S113034080648BBF8BB78F778BBFA998A89A809155
S11303506B00823609F412DF80916B00863609F453
S113036014DF80916B00843709F415DF80916B00F2
S1130370833589F4F89410927500109263001092FA
S1130380620010926500109264006FEF8FEF83DEBD
S113039082B3806C82BB80916B008534E1F410924F
S11303A07500109263001092620010926500109222
S11303B064006FEF8FEF6FDE82B3806C82BB80913D
S11303C06C00863940F082B38D2782BB82B38C27C0
S11303D082BB10926C0080916B00863409F4E1DEDC
S11303E080916B00823409F05DCF949A959A809144
S11303F072008730F8F080916F00873010F094DE3F
S113040051CF10926C0060E080E045DE82B3806CD6
S113041082BB80916C008233B0F3843608F042CF03
S113042060E08FEF38DE969A979880916C0084365E
S1130430B8F338CF10926C00E6CF1F920F920FB62C
S11304400F9211248F9380916A00816080936A00D7
S11304508F910F900FBE0F901F9018951F920F92BF
S11304600FB60F9211248F9380916A00826080935B
S11304706A008F910F900FBE0F901F9018951F92D6
S11304800F920FB60F9211248F9380916A008460AB
S113049080936A008F910F900FBE0F901F90189554
S11304A01F920F920FB60F9211248F9380916A00BE
S11304B0886080936A008F910F900FBE0F901F90F9
S11304C018951F920F920FB60F9211242F933F93FA
S11304D04F935F936F937F938F939F93AF93BF9348
S11304E0EF93FF9380916A00806180936A0080910A
S11304F06E008F5F80936E0082308CF1AC9A809195
S11305006E008330ECF110926E0060E081E0AFDDAC
S113051085B18093700061E080E0A9DD25B120936E
S113052077004091700080917300481B40936F00E6
S113053030E080917600281B3109C90199230CF41D
S1130540019695958795835080937200841B8093C0
S1130550750080916C008F5F80936C0011C0AC9823
S113056080916E00181664F460E081E080DD85B14E
S11305708093730061E080E07ADD85B1809376003A
S1130580FF91EF91BF91AF919F918F917F916F9167
S11305905F914F913F912F910F900FBE0F901F903D
S10905A01895F894FFCF4A
S10505A602004D
S9030000FC
